{
  "contractName": "evote",
  "abi": [
    {
      "constant": true,
      "inputs": [],
      "name": "constituency_exist",
      "outputs": [
        {
          "name": "",
          "type": "bool"
        }
      ],
      "payable": false,
      "stateMutability": "view",
      "type": "function",
      "signature": "0x0063f79d"
    },
    {
      "constant": true,
      "inputs": [],
      "name": "candidatesCount",
      "outputs": [
        {
          "name": "",
          "type": "uint256"
        }
      ],
      "payable": false,
      "stateMutability": "view",
      "type": "function",
      "signature": "0x2d35a8a2"
    },
    {
      "constant": true,
      "inputs": [],
      "name": "nowTime",
      "outputs": [
        {
          "name": "",
          "type": "uint256"
        }
      ],
      "payable": false,
      "stateMutability": "view",
      "type": "function",
      "signature": "0x335f1b37"
    },
    {
      "constant": true,
      "inputs": [
        {
          "name": "",
          "type": "uint256"
        }
      ],
      "name": "candidates",
      "outputs": [
        {
          "name": "cid",
          "type": "uint256"
        },
        {
          "name": "name",
          "type": "string"
        },
        {
          "name": "voteCount",
          "type": "uint256"
        },
        {
          "name": "constituencyId",
          "type": "uint256"
        },
        {
          "name": "constituencyName",
          "type": "string"
        },
        {
          "name": "party_name",
          "type": "string"
        }
      ],
      "payable": false,
      "stateMutability": "view",
      "type": "function",
      "signature": "0x3477ee2e"
    },
    {
      "constant": true,
      "inputs": [],
      "name": "voterCount",
      "outputs": [
        {
          "name": "",
          "type": "uint256"
        }
      ],
      "payable": false,
      "stateMutability": "view",
      "type": "function",
      "signature": "0x42169e48"
    },
    {
      "constant": true,
      "inputs": [],
      "name": "startVote",
      "outputs": [
        {
          "name": "",
          "type": "uint256"
        }
      ],
      "payable": false,
      "stateMutability": "view",
      "type": "function",
      "signature": "0x4c0a6af0"
    },
    {
      "constant": true,
      "inputs": [],
      "name": "constituencyCount",
      "outputs": [
        {
          "name": "",
          "type": "uint256"
        }
      ],
      "payable": false,
      "stateMutability": "view",
      "type": "function",
      "signature": "0x6c33f1a8"
    },
    {
      "constant": true,
      "inputs": [
        {
          "name": "",
          "type": "address"
        }
      ],
      "name": "voterids",
      "outputs": [
        {
          "name": "eid",
          "type": "uint256"
        },
        {
          "name": "hash",
          "type": "bytes32"
        }
      ],
      "payable": false,
      "stateMutability": "view",
      "type": "function",
      "signature": "0x7115a50a"
    },
    {
      "constant": true,
      "inputs": [
        {
          "name": "",
          "type": "uint256"
        }
      ],
      "name": "constituencies",
      "outputs": [
        {
          "name": "const_id",
          "type": "uint256"
        },
        {
          "name": "const_name",
          "type": "string"
        },
        {
          "name": "winner_id",
          "type": "uint256"
        }
      ],
      "payable": false,
      "stateMutability": "view",
      "type": "function",
      "signature": "0x9209416a"
    },
    {
      "constant": true,
      "inputs": [],
      "name": "endVote",
      "outputs": [
        {
          "name": "",
          "type": "uint256"
        }
      ],
      "payable": false,
      "stateMutability": "view",
      "type": "function",
      "signature": "0xb9223946"
    },
    {
      "constant": true,
      "inputs": [
        {
          "name": "",
          "type": "uint256"
        }
      ],
      "name": "voters",
      "outputs": [
        {
          "name": "vid",
          "type": "uint256"
        },
        {
          "name": "voted",
          "type": "bool"
        },
        {
          "name": "vote",
          "type": "uint256"
        },
        {
          "name": "registered",
          "type": "bool"
        },
        {
          "name": "vadd",
          "type": "address"
        },
        {
          "name": "email",
          "type": "string"
        },
        {
          "name": "con_id",
          "type": "uint256"
        },
        {
          "name": "constituency",
          "type": "string"
        }
      ],
      "payable": false,
      "stateMutability": "view",
      "type": "function",
      "signature": "0xda58c7d9"
    },
    {
      "constant": true,
      "inputs": [],
      "name": "admin",
      "outputs": [
        {
          "name": "",
          "type": "address"
        }
      ],
      "payable": false,
      "stateMutability": "view",
      "type": "function",
      "signature": "0xf851a440"
    },
    {
      "inputs": [],
      "payable": false,
      "stateMutability": "nonpayable",
      "type": "constructor",
      "signature": "constructor"
    },
    {
      "constant": false,
      "inputs": [
        {
          "name": "voter_id",
          "type": "uint256"
        }
      ],
      "name": "cancelReg",
      "outputs": [],
      "payable": false,
      "stateMutability": "nonpayable",
      "type": "function",
      "signature": "0xa56e23ef"
    },
    {
      "constant": false,
      "inputs": [
        {
          "name": "startv",
          "type": "uint256"
        },
        {
          "name": "endv",
          "type": "uint256"
        }
      ],
      "name": "setDates",
      "outputs": [],
      "payable": false,
      "stateMutability": "nonpayable",
      "type": "function",
      "signature": "0xdedf141e"
    },
    {
      "constant": false,
      "inputs": [
        {
          "name": "toCandidate",
          "type": "uint256"
        },
        {
          "name": "_name",
          "type": "string"
        },
        {
          "name": "_constid",
          "type": "uint256"
        },
        {
          "name": "_constname",
          "type": "string"
        },
        {
          "name": "_partyname",
          "type": "string"
        },
        {
          "name": "votes",
          "type": "uint256"
        }
      ],
      "name": "addCandidate",
      "outputs": [],
      "payable": false,
      "stateMutability": "nonpayable",
      "type": "function",
      "signature": "0x9c7f0c34"
    },
    {
      "constant": false,
      "inputs": [
        {
          "name": "toVoter",
          "type": "uint256"
        },
        {
          "name": "em",
          "type": "string"
        },
        {
          "name": "con_id",
          "type": "uint256"
        },
        {
          "name": "cons",
          "type": "string"
        }
      ],
      "name": "giveRightToVote",
      "outputs": [],
      "payable": false,
      "stateMutability": "nonpayable",
      "type": "function",
      "signature": "0x455fe802"
    },
    {
      "constant": false,
      "inputs": [
        {
          "name": "toVoter",
          "type": "uint256"
        }
      ],
      "name": "registerToVote",
      "outputs": [],
      "payable": false,
      "stateMutability": "nonpayable",
      "type": "function",
      "signature": "0x14a25ee9"
    },
    {
      "constant": false,
      "inputs": [
        {
          "name": "_hash",
          "type": "bytes32"
        }
      ],
      "name": "storeHash",
      "outputs": [],
      "payable": false,
      "stateMutability": "nonpayable",
      "type": "function",
      "signature": "0x7fe88885"
    },
    {
      "constant": false,
      "inputs": [
        {
          "name": "toCandidate",
          "type": "uint256"
        }
      ],
      "name": "vote",
      "outputs": [],
      "payable": false,
      "stateMutability": "nonpayable",
      "type": "function",
      "signature": "0x0121b93f"
    },
    {
      "constant": true,
      "inputs": [],
      "name": "winner",
      "outputs": [
        {
          "name": "_winner",
          "type": "uint256"
        }
      ],
      "payable": false,
      "stateMutability": "view",
      "type": "function",
      "signature": "0xdfbf53ae"
    },
    {
      "constant": true,
      "inputs": [
        {
          "name": "s",
          "type": "string"
        }
      ],
      "name": "testKeccak",
      "outputs": [
        {
          "name": "",
          "type": "bytes32"
        }
      ],
      "payable": false,
      "stateMutability": "pure",
      "type": "function",
      "signature": "0x14b05a38"
    }
  ],
  "bytecode": "0x608060405260006001556007805460ff1916905534801561001f57600080fd5b5060008054600160a060020a031916331790556113d3806100416000396000f3fe60806040526004361061011b5763ffffffff7c010000000000000000000000000000000000000000000000000000000060003504166263f79d81146101205780630121b93f1461014957806314a25ee91461017557806314b05a381461019f5780632d35a8a214610264578063335f1b37146102795780633477ee2e1461028e57806342169e4814610411578063455fe802146104265780634c0a6af01461056f5780636c33f1a8146105845780637115a50a146105995780637fe88885146105e55780639209416a1461060f5780639c7f0c34146106bf578063a56e23ef14610891578063b9223946146108bb578063da58c7d9146108d0578063dedf141e14610a1c578063dfbf53ae14610a4c578063f851a44014610a61575b600080fd5b34801561012c57600080fd5b50610135610a92565b604080519115158252519081900360200190f35b34801561015557600080fd5b506101736004803603602081101561016c57600080fd5b5035610a9b565b005b34801561018157600080fd5b506101736004803603602081101561019857600080fd5b5035610b43565b3480156101ab57600080fd5b50610252600480360360208110156101c257600080fd5b8101906020810181356401000000008111156101dd57600080fd5b8201836020820111156101ef57600080fd5b8035906020019184600183028401116401000000008311171561021157600080fd5b91908080601f016020809104026020016040519081016040528093929190818152602001838380828437600092019190915250929550610bca945050505050565b60408051918252519081900360200190f35b34801561027057600080fd5b50610252610c41565b34801561028557600080fd5b50610252610c47565b34801561029a57600080fd5b506102b8600480360360208110156102b157600080fd5b5035610c4d565b60405180878152602001806020018681526020018581526020018060200180602001848103845289818151815260200191508051906020019080838360005b8381101561030f5781810151838201526020016102f7565b50505050905090810190601f16801561033c5780820380516001836020036101000a031916815260200191505b50848103835286518152865160209182019188019080838360005b8381101561036f578181015183820152602001610357565b50505050905090810190601f16801561039c5780820380516001836020036101000a031916815260200191505b50848103825285518152855160209182019187019080838360005b838110156103cf5781810151838201526020016103b7565b50505050905090810190601f1680156103fc5780820380516001836020036101000a031916815260200191505b50995050505050505050505060405180910390f35b34801561041d57600080fd5b50610252610e2e565b34801561043257600080fd5b506101736004803603608081101561044957600080fd5b8135919081019060408101602082013564010000000081111561046b57600080fd5b82018360208201111561047d57600080fd5b8035906020019184600183028401116401000000008311171561049f57600080fd5b91908080601f016020809104026020016040519081016040528093929190818152602001838380828437600092019190915250929584359590949093506040810192506020013590506401000000008111156104fa57600080fd5b82018360208201111561050c57600080fd5b8035906020019184600183028401116401000000008311171561052e57600080fd5b91908080601f016020809104026020016040519081016040528093929190818152602001838380828437600092019190915250929550610e34945050505050565b34801561057b57600080fd5b50610252610eb0565b34801561059057600080fd5b50610252610eb6565b3480156105a557600080fd5b506105cc600480360360208110156105bc57600080fd5b5035600160a060020a0316610ebc565b6040805192835260208301919091528051918290030190f35b3480156105f157600080fd5b506101736004803603602081101561060857600080fd5b5035610ed5565b34801561061b57600080fd5b506106396004803603602081101561063257600080fd5b5035610eea565b6040518084815260200180602001838152602001828103825284818151815260200191508051906020019080838360005b8381101561068257818101518382015260200161066a565b50505050905090810190601f1680156106af5780820380516001836020036101000a031916815260200191505b5094505050505060405180910390f35b3480156106cb57600080fd5b50610173600480360360c08110156106e257600080fd5b8135919081019060408101602082013564010000000081111561070457600080fd5b82018360208201111561071657600080fd5b8035906020019184600183028401116401000000008311171561073857600080fd5b91908080601f0160208091040260200160405190810160405280939291908181526020018383808284376000920191909152509295843595909490935060408101925060200135905064010000000081111561079357600080fd5b8201836020820111156107a557600080fd5b803590602001918460018302840111640100000000831117156107c757600080fd5b91908080601f016020809104026020016040519081016040528093929190818152602001838380828437600092019190915250929594936020810193503591505064010000000081111561081a57600080fd5b82018360208201111561082c57600080fd5b8035906020019184600183028401116401000000008311171561084e57600080fd5b91908080601f0160208091040260200160405190810160405280939291908181526020018383808284376000920191909152509295505091359250610f97915050565b34801561089d57600080fd5b50610173600480360360208110156108b457600080fd5b50356110d1565b3480156108c757600080fd5b50610252611103565b3480156108dc57600080fd5b506108fa600480360360208110156108f357600080fd5b5035611109565b60405180898152602001881515151581526020018781526020018615151515815260200185600160a060020a0316600160a060020a031681526020018060200184815260200180602001838103835286818151815260200191508051906020019080838360005b83811015610979578181015183820152602001610961565b50505050905090810190601f1680156109a65780820380516001836020036101000a031916815260200191505b50838103825284518152845160209182019186019080838360005b838110156109d95781810151838201526020016109c1565b50505050905090810190601f168015610a065780820380516001836020036101000a031916815260200191505b509a505050505050505050505060405180910390f35b348015610a2857600080fd5b5061017360048036036040811015610a3f57600080fd5b508035906020013561126b565b348015610a5857600080fd5b5061025261129e565b348015610a6d57600080fd5b50610a766112fd565b60408051600160a060020a039092168252519081900360200190f35b60075460ff1681565b60095442118015610aae5750600a544211155b1515610ab957600080fd5b3360009081526003602090815260408083205480845260029092529091206001015460ff1680610afb575060008181526002602052604090206003015460ff16155b15610b065750610b40565b60009081526002602081815260408084206001818101805460ff191682179055908401869055858552600490925290922001805490910190555b50565b60008181526002602052604090205415801590610b72575060008181526002602052604090206003015460ff16155b15610b4057336000818152600360208181526040808420869055948352600290529290209091018054600160ff199091161774ffffffffffffffffffffffffffffffffffffffff001916610100909202919091179055565b6000816040516020018082805190602001908083835b60208310610bff5780518252601f199092019160209182019101610be0565b6001836020036101000a038019825116818451168082178552505050505050905001915050604051602081830303815290604052805190602001209050919050565b60065481565b600b5481565b6004602090815260009182526040918290208054600180830180548651600293821615610100026000190190911692909204601f810186900486028301860190965285825291949293909290830182828015610cea5780601f10610cbf57610100808354040283529160200191610cea565b820191906000526020600020905b815481529060010190602001808311610ccd57829003601f168201915b505050505090806002015490806003015490806004018054600181600116156101000203166002900480601f016020809104026020016040519081016040528092919081815260200182805460018160011615610100020316600290048015610d945780601f10610d6957610100808354040283529160200191610d94565b820191906000526020600020905b815481529060010190602001808311610d7757829003601f168201915b5050505060058301805460408051602060026001851615610100026000190190941693909304601f8101849004840282018401909252818152949594935090830182828015610e245780601f10610df957610100808354040283529160200191610e24565b820191906000526020600020905b815481529060010190602001808311610e0757829003601f168201915b5050505050905086565b60015481565b600054600160a060020a03163314610e4b57610eaa565b600180548101905560008481526002602090815260409091208581558451610e7b9260049092019186019061130c565b506000848152600260209081526040909120600581018490558251610ea89260069092019184019061130c565b505b50505050565b60095481565b60085481565b6003602052600090815260409020805460019091015482565b33600090815260036020526040902060010155565b6005602090815260009182526040918290208054600180830180548651600293821615610100026000190190911692909204601f810186900486028301860190965285825291949293909290830182828015610f875780601f10610f5c57610100808354040283529160200191610f87565b820191906000526020600020905b815481529060010190602001808311610f6a57829003601f168201915b5050505050908060020154905083565b600054600160a060020a03163314610fae576110c9565b60068054600190810190915560008781526004602090815260409091208881558751610fe193919091019188019061130c565b506000868152600460208181526040909220600281018490556003810187905585516110159391909201919086019061130c565b506000868152600460209081526040909120835161103b9260059092019185019061130c565b5060005b6008548110156110755760008181526005602052604090205485141561106d576007805460ff191660011790555b60010161103f565b5060075460ff1615156110c957600880546001908101909155600085815260056020908152604090912086815585516110b593919091019186019061130c565b506000848152600560205260408120600201555b505050505050565b600054600160a060020a031633146110e857610b40565b6000908152600260205260409020600301805460ff19169055565b600a5481565b60026020818152600092835260409283902080546001808301548386015460038501546004860180548a516101009682161587026000190190911699909904601f810189900489028a018901909a52898952949860ff9384169892979382169694909104600160a060020a03169491928301828280156111ca5780601f1061119f576101008083540402835291602001916111ca565b820191906000526020600020905b8154815290600101906020018083116111ad57829003601f168201915b50505050600583015460068401805460408051602060026001851615610100026000190190941693909304601f810184900484028201840190925281815295969395939450908301828280156112615780601f1061123657610100808354040283529160200191611261565b820191906000526020600020905b81548152906001019060200180831161124457829003601f168201915b5050505050905088565b600054600160a060020a0316331415806112855750808210155b1561128f5761129a565b6009829055600a8190555b5050565b600a5460009042116112af57600080fd5b600060015b6006548110156112f8576000818152600460205260409020600201548210156112f0576000818152600460205260409020600201549092509050815b6001016112b4565b505090565b600054600160a060020a031681565b828054600181600116156101000203166002900490600052602060002090601f016020900481019282601f1061134d57805160ff191683800117855561137a565b8280016001018555821561137a579182015b8281111561137a57825182559160200191906001019061135f565b5061138692915061138a565b5090565b6113a491905b808211156113865760008155600101611390565b9056fea165627a7a72305820f9e1a8718ea7d639c33dc12906ed4ef691e82986f549e132cf2ea4c1cf11c02b0029",
  "source": "pragma solidity ^0.5.0;\r\ncontract evote {\r\n\r\n    struct Voter {\r\n        uint vid;\r\n        bool voted;\r\n        uint vote;\r\n        bool registered;\r\n        address vadd;\r\n        string email;\r\n        uint con_id;\r\n        string constituency;\r\n    }\r\n    \r\n    struct Candidate {\r\n        uint cid;\r\n        string name;\r\n        uint voteCount;\r\n        uint constituencyId;\r\n        string constituencyName;\r\n        string party_name;\r\n    }\r\n    \r\n    struct VoterId {\r\n        uint eid;//ethereum id\r\n        bytes32 hash;\r\n    }\r\n    \r\n    \r\n    struct Constituency {\r\n        uint const_id;\r\n        string const_name;\r\n        uint winner_id;\r\n        \r\n    }\r\n    \r\n    address public admin;\r\n    uint256 public voterCount=0;\r\n    mapping(uint => Voter) public voters;\r\n    mapping(address=> VoterId) public voterids;\r\n    mapping(uint => Candidate) public candidates;\r\n    mapping(uint => Constituency) public constituencies;\r\n    uint public candidatesCount;\r\n    bool public constituency_exist = false;\r\n    uint public constituencyCount;\r\n    uint256 public startVote;\r\n    uint256 public endVote;\r\n    uint public nowTime; \r\n   \r\n    constructor() public {\r\n        admin = msg.sender;\r\n        }\r\n    function cancelReg (uint voter_id) public{\r\n        if (msg.sender != admin) return;\r\n        voters[voter_id].registered = false;\r\n    }\r\n\r\n    function setDates (uint startv,uint endv) public{\r\n        if (msg.sender != admin || startv>=endv) return;\r\n        startVote=startv;\r\n        endVote=endv;\r\n    }\r\n    \r\n    modifier onlyVote()\r\n    {\r\n        require(now>startVote && now<=endVote);\r\n        _;\r\n    }\r\n    \r\n    modifier onlyResult()\r\n    {\r\n        require(now>endVote);\r\n        _;\r\n    }\r\n        \r\n    function addCandidate (uint toCandidate, string memory _name, uint _constid, string memory _constname, string memory _partyname,uint votes) public {\r\n         if (msg.sender != admin) return;\r\n        candidatesCount ++;\r\n        candidates[toCandidate].cid = toCandidate;\r\n        candidates[toCandidate].name = _name;\r\n        candidates[toCandidate].voteCount = votes;\r\n        candidates[toCandidate].constituencyId = _constid;\r\n        candidates[toCandidate].constituencyName = _constname;\r\n        candidates[toCandidate].party_name = _partyname;\r\n        \r\n        for(uint i=0;i < constituencyCount; i++)\r\n        {\r\n          if(constituencies[i].const_id==_constid)\r\n          {\r\n              constituency_exist=true;\r\n          }\r\n        }\r\n        \r\n        if(constituency_exist==false)\r\n        {\r\n            constituencyCount ++;\r\n            constituencies[_constid].const_id=_constid;\r\n            constituencies[_constid].const_name = _constname;\r\n            constituencies[_constid].winner_id = 0;\r\n            \r\n        }\r\n    }\r\n    \r\n    function giveRightToVote(uint toVoter, string memory em, uint con_id, string memory cons) public {\r\n        if (msg.sender != admin) return;\r\n        voterCount+=1;\r\n        voters[toVoter].vid = toVoter;\r\n        voters[toVoter].email = em;\r\n        voters[toVoter].con_id = con_id;\r\n        voters[toVoter].constituency = cons;\r\n        \r\n    }\r\n    //need to include otp thing\r\n    function registerToVote(uint toVoter) public {\r\n        if(voters[toVoter].vid!=0 && voters[toVoter].registered==false){\r\n        voterids[msg.sender].eid=toVoter;\r\n        voters[toVoter].registered=true;\r\n        voters[toVoter].vadd=msg.sender;\r\n        }\r\n        \r\n    }\r\n    function storeHash(bytes32 _hash) public{\r\n        voterids[msg.sender].hash = _hash;\r\n    }\r\n    \r\n    function vote(uint toCandidate) public onlyVote {\r\n        uint voterid;\r\n        voterid=voterids[msg.sender].eid;\r\n        if (voters[voterid].voted || voters[voterid].registered==false) return;\r\n        \r\n        voters[voterid].voted = true;\r\n        \r\n        voters[voterid].vote = toCandidate;\r\n        candidates[toCandidate].voteCount += 1;\r\n    }\r\n    \r\n    function winner() public view onlyResult returns (uint _winner) {\r\n        uint256 winnerVoteCount = 0;\r\n        for (uint cand = 1; cand < candidatesCount; cand++)\r\n            if (candidates[cand].voteCount > winnerVoteCount) {\r\n                winnerVoteCount = candidates[cand].voteCount;\r\n                _winner = cand;\r\n            }\r\n    }\r\n    function testKeccak(string memory s) public pure returns (bytes32) { \r\n        return keccak256(abi.encodePacked(s)); }\r\n    \r\n}",
  "sourcePath": "C:/Users/User/OneDrive/Documents/Code/BlockVote-Truffle/contracts/evote.sol",
  "compiler": {
    "name": "solc",
    "version": "0.5.0+commit.1d4f565a.Emscripten.clang"
  },
  "schemaVersion": "3.0.1",
  "updatedAt": "2023-08-22T23:41:02.664Z",
  "devdoc": {
    "methods": {}
  },
  "userdoc": {
    "methods": {}
  }
}