{
  "contractName": "evote",
  "abi": [
    {
      "inputs": [],
      "payable": false,
      "stateMutability": "nonpayable",
      "type": "constructor"
    },
    {
      "constant": true,
      "inputs": [],
      "name": "admin",
      "outputs": [
        {
          "internalType": "address",
          "name": "",
          "type": "address"
        }
      ],
      "payable": false,
      "stateMutability": "view",
      "type": "function"
    },
    {
      "constant": true,
      "inputs": [
        {
          "internalType": "uint256",
          "name": "",
          "type": "uint256"
        }
      ],
      "name": "candidates",
      "outputs": [
        {
          "internalType": "uint256",
          "name": "cid",
          "type": "uint256"
        },
        {
          "internalType": "string",
          "name": "name",
          "type": "string"
        },
        {
          "internalType": "uint256",
          "name": "voteCount",
          "type": "uint256"
        },
        {
          "internalType": "uint256",
          "name": "constituencyId",
          "type": "uint256"
        },
        {
          "internalType": "string",
          "name": "constituencyName",
          "type": "string"
        },
        {
          "internalType": "string",
          "name": "party_name",
          "type": "string"
        }
      ],
      "payable": false,
      "stateMutability": "view",
      "type": "function"
    },
    {
      "constant": true,
      "inputs": [],
      "name": "candidatesCount",
      "outputs": [
        {
          "internalType": "uint256",
          "name": "",
          "type": "uint256"
        }
      ],
      "payable": false,
      "stateMutability": "view",
      "type": "function"
    },
    {
      "constant": true,
      "inputs": [
        {
          "internalType": "uint256",
          "name": "",
          "type": "uint256"
        }
      ],
      "name": "constituencies",
      "outputs": [
        {
          "internalType": "uint256",
          "name": "const_id",
          "type": "uint256"
        },
        {
          "internalType": "string",
          "name": "const_name",
          "type": "string"
        },
        {
          "internalType": "uint256",
          "name": "winner_id",
          "type": "uint256"
        }
      ],
      "payable": false,
      "stateMutability": "view",
      "type": "function"
    },
    {
      "constant": true,
      "inputs": [],
      "name": "constituencyCount",
      "outputs": [
        {
          "internalType": "uint256",
          "name": "",
          "type": "uint256"
        }
      ],
      "payable": false,
      "stateMutability": "view",
      "type": "function"
    },
    {
      "constant": true,
      "inputs": [],
      "name": "constituency_exist",
      "outputs": [
        {
          "internalType": "bool",
          "name": "",
          "type": "bool"
        }
      ],
      "payable": false,
      "stateMutability": "view",
      "type": "function"
    },
    {
      "constant": true,
      "inputs": [],
      "name": "endVote",
      "outputs": [
        {
          "internalType": "uint256",
          "name": "",
          "type": "uint256"
        }
      ],
      "payable": false,
      "stateMutability": "view",
      "type": "function"
    },
    {
      "constant": true,
      "inputs": [],
      "name": "nowTime",
      "outputs": [
        {
          "internalType": "uint256",
          "name": "",
          "type": "uint256"
        }
      ],
      "payable": false,
      "stateMutability": "view",
      "type": "function"
    },
    {
      "constant": true,
      "inputs": [],
      "name": "startVote",
      "outputs": [
        {
          "internalType": "uint256",
          "name": "",
          "type": "uint256"
        }
      ],
      "payable": false,
      "stateMutability": "view",
      "type": "function"
    },
    {
      "constant": true,
      "inputs": [],
      "name": "voterCount",
      "outputs": [
        {
          "internalType": "uint256",
          "name": "",
          "type": "uint256"
        }
      ],
      "payable": false,
      "stateMutability": "view",
      "type": "function"
    },
    {
      "constant": true,
      "inputs": [
        {
          "internalType": "address",
          "name": "",
          "type": "address"
        }
      ],
      "name": "voterids",
      "outputs": [
        {
          "internalType": "uint256",
          "name": "eid",
          "type": "uint256"
        },
        {
          "internalType": "bytes32",
          "name": "hash",
          "type": "bytes32"
        }
      ],
      "payable": false,
      "stateMutability": "view",
      "type": "function"
    },
    {
      "constant": true,
      "inputs": [
        {
          "internalType": "uint256",
          "name": "",
          "type": "uint256"
        }
      ],
      "name": "voters",
      "outputs": [
        {
          "internalType": "uint256",
          "name": "vid",
          "type": "uint256"
        },
        {
          "internalType": "bool",
          "name": "voted",
          "type": "bool"
        },
        {
          "internalType": "uint256",
          "name": "vote",
          "type": "uint256"
        },
        {
          "internalType": "bool",
          "name": "registered",
          "type": "bool"
        },
        {
          "internalType": "address",
          "name": "vadd",
          "type": "address"
        },
        {
          "internalType": "string",
          "name": "email",
          "type": "string"
        },
        {
          "internalType": "uint256",
          "name": "con_id",
          "type": "uint256"
        },
        {
          "internalType": "string",
          "name": "constituency",
          "type": "string"
        }
      ],
      "payable": false,
      "stateMutability": "view",
      "type": "function"
    },
    {
      "constant": false,
      "inputs": [
        {
          "internalType": "uint256",
          "name": "voter_id",
          "type": "uint256"
        }
      ],
      "name": "cancelReg",
      "outputs": [],
      "payable": false,
      "stateMutability": "nonpayable",
      "type": "function"
    },
    {
      "constant": false,
      "inputs": [
        {
          "internalType": "uint256",
          "name": "startv",
          "type": "uint256"
        },
        {
          "internalType": "uint256",
          "name": "endv",
          "type": "uint256"
        }
      ],
      "name": "setDates",
      "outputs": [],
      "payable": false,
      "stateMutability": "nonpayable",
      "type": "function"
    },
    {
      "constant": false,
      "inputs": [
        {
          "internalType": "uint256",
          "name": "toCandidate",
          "type": "uint256"
        },
        {
          "internalType": "string",
          "name": "_name",
          "type": "string"
        },
        {
          "internalType": "uint256",
          "name": "_constid",
          "type": "uint256"
        },
        {
          "internalType": "string",
          "name": "_constname",
          "type": "string"
        },
        {
          "internalType": "string",
          "name": "_partyname",
          "type": "string"
        },
        {
          "internalType": "uint256",
          "name": "votes",
          "type": "uint256"
        }
      ],
      "name": "addCandidate",
      "outputs": [],
      "payable": false,
      "stateMutability": "nonpayable",
      "type": "function"
    },
    {
      "constant": false,
      "inputs": [
        {
          "internalType": "uint256",
          "name": "toVoter",
          "type": "uint256"
        },
        {
          "internalType": "string",
          "name": "em",
          "type": "string"
        },
        {
          "internalType": "uint256",
          "name": "con_id",
          "type": "uint256"
        },
        {
          "internalType": "string",
          "name": "cons",
          "type": "string"
        }
      ],
      "name": "giveRightToVote",
      "outputs": [],
      "payable": false,
      "stateMutability": "nonpayable",
      "type": "function"
    },
    {
      "constant": false,
      "inputs": [
        {
          "internalType": "uint256",
          "name": "toVoter",
          "type": "uint256"
        }
      ],
      "name": "registerToVote",
      "outputs": [],
      "payable": false,
      "stateMutability": "nonpayable",
      "type": "function"
    },
    {
      "constant": false,
      "inputs": [
        {
          "internalType": "bytes32",
          "name": "_hash",
          "type": "bytes32"
        }
      ],
      "name": "storeHash",
      "outputs": [],
      "payable": false,
      "stateMutability": "nonpayable",
      "type": "function"
    },
    {
      "constant": false,
      "inputs": [
        {
          "internalType": "uint256",
          "name": "toCandidate",
          "type": "uint256"
        }
      ],
      "name": "vote",
      "outputs": [],
      "payable": false,
      "stateMutability": "nonpayable",
      "type": "function"
    },
    {
      "constant": true,
      "inputs": [],
      "name": "winner",
      "outputs": [
        {
          "internalType": "uint256",
          "name": "_winner",
          "type": "uint256"
        }
      ],
      "payable": false,
      "stateMutability": "view",
      "type": "function"
    },
    {
      "constant": true,
      "inputs": [
        {
          "internalType": "string",
          "name": "s",
          "type": "string"
        }
      ],
      "name": "testKeccak",
      "outputs": [
        {
          "internalType": "bytes32",
          "name": "",
          "type": "bytes32"
        }
      ],
      "payable": false,
      "stateMutability": "pure",
      "type": "function"
    }
  ],
  "bytecode": "0x608060405260006001556007805460ff1916905534801561001f57600080fd5b50600080546001600160a01b031916331790556112c8806100416000396000f3fe608060405234801561001057600080fd5b50600436106101365760003560e01c80636c33f1a8116100b8578063a56e23ef1161007c578063a56e23ef146107dd578063b9223946146107fa578063da58c7d914610802578063dedf141e14610941578063dfbf53ae14610964578063f851a4401461096c57610136565b80636c33f1a8146105175780637115a50a1461051f5780637fe888851461055e5780639209416a1461057b5780639c7f0c341461061e57610136565b8063335f1b37116100ff578063335f1b37146102515780633477ee2e1461025957806342169e48146103cf578063455fe802146103d75780634c0a6af01461050f57610136565b806263f79d1461013b5780630121b93f1461015757806314a25ee91461017657806314b05a38146101935780632d35a8a214610249575b600080fd5b610143610990565b604080519115158252519081900360200190f35b6101746004803603602081101561016d57600080fd5b5035610999565b005b6101746004803603602081101561018c57600080fd5b5035610a3f565b610237600480360360208110156101a957600080fd5b810190602081018135600160201b8111156101c357600080fd5b8201836020820111156101d557600080fd5b803590602001918460018302840111600160201b831117156101f657600080fd5b91908080601f016020809104026020016040519081016040528093929190818152602001838380828437600092019190915250929550610ab9945050505050565b60408051918252519081900360200190f35b610237610b30565b610237610b36565b6102766004803603602081101561026f57600080fd5b5035610b3c565b60405180878152602001806020018681526020018581526020018060200180602001848103845289818151815260200191508051906020019080838360005b838110156102cd5781810151838201526020016102b5565b50505050905090810190601f1680156102fa5780820380516001836020036101000a031916815260200191505b50848103835286518152865160209182019188019080838360005b8381101561032d578181015183820152602001610315565b50505050905090810190601f16801561035a5780820380516001836020036101000a031916815260200191505b50848103825285518152855160209182019187019080838360005b8381101561038d578181015183820152602001610375565b50505050905090810190601f1680156103ba5780820380516001836020036101000a031916815260200191505b50995050505050505050505060405180910390f35b610237610d1d565b610174600480360360808110156103ed57600080fd5b81359190810190604081016020820135600160201b81111561040e57600080fd5b82018360208201111561042057600080fd5b803590602001918460018302840111600160201b8311171561044157600080fd5b91908080601f01602080910402602001604051908101604052809392919081815260200183838082843760009201919091525092958435959094909350604081019250602001359050600160201b81111561049b57600080fd5b8201836020820111156104ad57600080fd5b803590602001918460018302840111600160201b831117156104ce57600080fd5b91908080601f016020809104026020016040519081016040528093929190818152602001838380828437600092019190915250929550610d23945050505050565b610237610d9f565b610237610da5565b6105456004803603602081101561053557600080fd5b50356001600160a01b0316610dab565b6040805192835260208301919091528051918290030190f35b6101746004803603602081101561057457600080fd5b5035610dc4565b6105986004803603602081101561059157600080fd5b5035610dd9565b6040518084815260200180602001838152602001828103825284818151815260200191508051906020019080838360005b838110156105e15781810151838201526020016105c9565b50505050905090810190601f16801561060e5780820380516001836020036101000a031916815260200191505b5094505050505060405180910390f35b610174600480360360c081101561063457600080fd5b81359190810190604081016020820135600160201b81111561065557600080fd5b82018360208201111561066757600080fd5b803590602001918460018302840111600160201b8311171561068857600080fd5b91908080601f01602080910402602001604051908101604052809392919081815260200183838082843760009201919091525092958435959094909350604081019250602001359050600160201b8111156106e257600080fd5b8201836020820111156106f457600080fd5b803590602001918460018302840111600160201b8311171561071557600080fd5b91908080601f0160208091040260200160405190810160405280939291908181526020018383808284376000920191909152509295949360208101935035915050600160201b81111561076757600080fd5b82018360208201111561077957600080fd5b803590602001918460018302840111600160201b8311171561079a57600080fd5b91908080601f0160208091040260200160405190810160405280939291908181526020018383808284376000920191909152509295505091359250610e86915050565b610174600480360360208110156107f357600080fd5b5035610fbe565b610237610ff0565b61081f6004803603602081101561081857600080fd5b5035610ff6565b604051808981526020018815151515815260200187815260200186151515158152602001856001600160a01b03166001600160a01b031681526020018060200184815260200180602001838103835286818151815260200191508051906020019080838360005b8381101561089e578181015183820152602001610886565b50505050905090810190601f1680156108cb5780820380516001836020036101000a031916815260200191505b50838103825284518152845160209182019186019080838360005b838110156108fe5781810151838201526020016108e6565b50505050905090810190601f16801561092b5780820380516001836020036101000a031916815260200191505b509a505050505050505050505060405180910390f35b6101746004803603604081101561095757600080fd5b5080359060200135611158565b61023761118b565b6109746111e9565b604080516001600160a01b039092168252519081900360200190f35b60075460ff1681565b600954421180156109ac5750600a544211155b6109b557600080fd5b3360009081526003602090815260408083205480845260029092529091206001015460ff16806109f7575060008181526002602052604090206003015460ff16155b15610a025750610a3c565b60009081526002602081815260408084206001818101805460ff191682179055908401869055858552600490925290922001805490910190555b50565b60008181526002602052604090205415801590610a6e575060008181526002602052604090206003015460ff16155b15610a3c57336000818152600360208181526040808420869055948352600290529290209091018054600160ff1990911617610100600160a81b031916610100909202919091179055565b6000816040516020018082805190602001908083835b60208310610aee5780518252601f199092019160209182019101610acf565b6001836020036101000a038019825116818451168082178552505050505050905001915050604051602081830303815290604052805190602001209050919050565b60065481565b600b5481565b6004602090815260009182526040918290208054600180830180548651600293821615610100026000190190911692909204601f810186900486028301860190965285825291949293909290830182828015610bd95780601f10610bae57610100808354040283529160200191610bd9565b820191906000526020600020905b815481529060010190602001808311610bbc57829003601f168201915b505050505090806002015490806003015490806004018054600181600116156101000203166002900480601f016020809104026020016040519081016040528092919081815260200182805460018160011615610100020316600290048015610c835780601f10610c5857610100808354040283529160200191610c83565b820191906000526020600020905b815481529060010190602001808311610c6657829003601f168201915b5050505060058301805460408051602060026001851615610100026000190190941693909304601f8101849004840282018401909252818152949594935090830182828015610d135780601f10610ce857610100808354040283529160200191610d13565b820191906000526020600020905b815481529060010190602001808311610cf657829003601f168201915b5050505050905086565b60015481565b6000546001600160a01b03163314610d3a57610d99565b600180548101905560008481526002602090815260409091208581558451610d6a926004909201918601906111f8565b506000848152600260209081526040909120600581018490558251610d97926006909201918401906111f8565b505b50505050565b60095481565b60085481565b6003602052600090815260409020805460019091015482565b33600090815260036020526040902060010155565b6005602090815260009182526040918290208054600180830180548651600293821615610100026000190190911692909204601f810186900486028301860190965285825291949293909290830182828015610e765780601f10610e4b57610100808354040283529160200191610e76565b820191906000526020600020905b815481529060010190602001808311610e5957829003601f168201915b5050505050908060020154905083565b6000546001600160a01b03163314610e9d57610fb6565b60068054600190810190915560008781526004602090815260409091208881558751610ed09391909101918801906111f8565b50600086815260046020818152604090922060028101849055600381018790558551610f04939190920191908601906111f8565b5060008681526004602090815260409091208351610f2a926005909201918501906111f8565b5060005b600854811015610f6457600081815260056020526040902054851415610f5c576007805460ff191660011790555b600101610f2e565b5060075460ff16610fb65760088054600190810190915560008581526005602090815260409091208681558551610fa29391909101918601906111f8565b506000848152600560205260408120600201555b505050505050565b6000546001600160a01b03163314610fd557610a3c565b6000908152600260205260409020600301805460ff19169055565b600a5481565b60026020818152600092835260409283902080546001808301548386015460038501546004860180548a516101009682161587026000190190911699909904601f810189900489028a018901909a52898952949860ff93841698929793821696949091046001600160a01b03169491928301828280156110b75780601f1061108c576101008083540402835291602001916110b7565b820191906000526020600020905b81548152906001019060200180831161109a57829003601f168201915b50505050600583015460068401805460408051602060026001851615610100026000190190941693909304601f8101849004840282018401909252818152959693959394509083018282801561114e5780601f106111235761010080835404028352916020019161114e565b820191906000526020600020905b81548152906001019060200180831161113157829003601f168201915b5050505050905088565b6000546001600160a01b0316331415806111725750808210155b1561117c57611187565b6009829055600a8190555b5050565b6000600a54421161119b57600080fd5b600060015b6006548110156111e4576000818152600460205260409020600201548210156111dc576000818152600460205260409020600201549092509050815b6001016111a0565b505090565b6000546001600160a01b031681565b828054600181600116156101000203166002900490600052602060002090601f016020900481019282601f1061123957805160ff1916838001178555611266565b82800160010185558215611266579182015b8281111561126657825182559160200191906001019061124b565b50611272929150611276565b5090565b61129091905b80821115611272576000815560010161127c565b9056fea265627a7a72315820f8191c087ef1eb2a14b2da2d64676f87c1fd1ad7cd4a5164386c4d1e53fc195364736f6c63430005100032",
  "source": "pragma solidity >=0.4.22 <0.6.0;\r\ncontract evote {\r\n\r\n    struct Voter {\r\n        uint vid;\r\n        bool voted;\r\n        uint vote;\r\n        bool registered;\r\n        address vadd;\r\n        string email;\r\n        uint con_id;\r\n        string constituency;\r\n    }\r\n    \r\n    struct Candidate {\r\n        uint cid;\r\n        string name;\r\n        uint voteCount;\r\n        uint constituencyId;\r\n        string constituencyName;\r\n        string party_name;\r\n    }\r\n    \r\n    struct VoterId {\r\n        uint eid;//ethereum id\r\n        bytes32 hash;\r\n    }\r\n    \r\n    \r\n    struct Constituency {\r\n        uint const_id;\r\n        string const_name;\r\n        uint winner_id;\r\n        \r\n    }\r\n    \r\n    address public admin;\r\n    uint256 public voterCount=0;\r\n    mapping(uint => Voter) public voters;\r\n    mapping(address=> VoterId) public voterids;\r\n    mapping(uint => Candidate) public candidates;\r\n    mapping(uint => Constituency) public constituencies;\r\n    uint public candidatesCount;\r\n    bool public constituency_exist = false;\r\n    uint public constituencyCount;\r\n    uint256 public startVote;\r\n    uint256 public endVote;\r\n    uint public nowTime; \r\n   \r\n    constructor() public {\r\n        admin = msg.sender;\r\n        }\r\n    function cancelReg (uint voter_id) public{\r\n        if (msg.sender != admin) return;\r\n        voters[voter_id].registered = false;\r\n    }\r\n\r\n    function setDates (uint startv,uint endv) public{\r\n        if (msg.sender != admin || startv>=endv) return;\r\n        startVote=startv;\r\n        endVote=endv;\r\n    }\r\n    \r\n    modifier onlyVote()\r\n    {\r\n        require(now>startVote && now<=endVote);\r\n        _;\r\n    }\r\n    \r\n    modifier onlyResult()\r\n    {\r\n        require(now>endVote);\r\n        _;\r\n    }\r\n        \r\n    function addCandidate (uint toCandidate, string memory _name, uint _constid, string memory _constname, string memory _partyname,uint votes) public {\r\n         if (msg.sender != admin) return;\r\n        candidatesCount ++;\r\n        candidates[toCandidate].cid = toCandidate;\r\n        candidates[toCandidate].name = _name;\r\n        candidates[toCandidate].voteCount = votes;\r\n        candidates[toCandidate].constituencyId = _constid;\r\n        candidates[toCandidate].constituencyName = _constname;\r\n        candidates[toCandidate].party_name = _partyname;\r\n        \r\n        for(uint i=0;i < constituencyCount; i++)\r\n        {\r\n          if(constituencies[i].const_id==_constid)\r\n          {\r\n              constituency_exist=true;\r\n          }\r\n        }\r\n        \r\n        if(constituency_exist==false)\r\n        {\r\n            constituencyCount ++;\r\n            constituencies[_constid].const_id=_constid;\r\n            constituencies[_constid].const_name = _constname;\r\n            constituencies[_constid].winner_id = 0;\r\n            \r\n        }\r\n    }\r\n    \r\n    function giveRightToVote(uint toVoter, string memory em, uint con_id, string memory cons) public {\r\n        if (msg.sender != admin) return;\r\n        voterCount+=1;\r\n        voters[toVoter].vid = toVoter;\r\n        voters[toVoter].email = em;\r\n        voters[toVoter].con_id = con_id;\r\n        voters[toVoter].constituency = cons;\r\n        \r\n    }\r\n    //need to include otp thing\r\n    function registerToVote(uint toVoter) public {\r\n        if(voters[toVoter].vid!=0 && voters[toVoter].registered==false){\r\n        voterids[msg.sender].eid=toVoter;\r\n        voters[toVoter].registered=true;\r\n        voters[toVoter].vadd=msg.sender;\r\n        }\r\n        \r\n    }\r\n    function storeHash(bytes32 _hash) public{\r\n        voterids[msg.sender].hash = _hash;\r\n    }\r\n    \r\n    function vote(uint toCandidate) public onlyVote {\r\n        uint voterid;\r\n        voterid=voterids[msg.sender].eid;\r\n        if (voters[voterid].voted || voters[voterid].registered==false) return;\r\n        \r\n        voters[voterid].voted = true;\r\n        \r\n        voters[voterid].vote = toCandidate;\r\n        candidates[toCandidate].voteCount += 1;\r\n    }\r\n    \r\n    function winner() public view onlyResult returns (uint _winner) {\r\n        uint256 winnerVoteCount = 0;\r\n        for (uint cand = 1; cand < candidatesCount; cand++)\r\n            if (candidates[cand].voteCount > winnerVoteCount) {\r\n                winnerVoteCount = candidates[cand].voteCount;\r\n                _winner = cand;\r\n            }\r\n    }\r\n    function testKeccak(string memory s) public pure returns (bytes32) { \r\n        return keccak256(abi.encodePacked(s)); }\r\n    \r\n}",
  "sourcePath": "C:\\Users\\Student\\Downloads\\BlockVote-Truffle\\contracts\\evote.sol",
  "compiler": {
    "name": "solc",
    "version": "0.5.16+commit.9c3226ce.Emscripten.clang"
  },
  "schemaVersion": "3.4.15",
  "updatedAt": "2023-08-22T15:25:41.931Z",
  "networkType": "ethereum",
  "devdoc": {
    "methods": {}
  },
  "userdoc": {
    "methods": {}
  }
}